S01C00004156525F616E616C6F675F696E64696361746F722E7372656332
S11300000C9434000C943E000C943E000C943E007E
S11300100C943E000C943E000C943E000C943E0064
S11300200C943E000C943E000C943E000C943E0054
S11300300C943E000C943E000C943E000C943E0044
S11300400C943E000C943E000C943E000C943E0034
S11300500C943E000C943E000C943E000C943E0024
S11300600C943E000C943E0011241FBECFEFD8E048
S1130070DEBFCDBF0E9440000C94CC000C94000065
S11300808EE387B98FE18AB918B8ECE7F0E0808194
S113009080648083EAE7F0E08081806A8083ABE754
S11300A0B0E08C91807D8C9380818064808380918A
S11300B07A0084FFFCCF8091780090917900883E8B
S11300C023E0920720F02BB120612BB903C02BB1A0
S11300D020712BB9843823E0920720F02BB12860DB
S11300E02BB903C02BB128702BB9803223E09207BF
S11300F020F02BB124602BB903C02BB124702BB991
S11301008C3B22E0920720F02BB122602BB903C074
S11301102BB122702BB9883522E0920720F02BB145
S113012021602BB903C02BB121702BB9843F21E08E
S1130130920720F028B1206228B903C028B12072A8
S113014028B9803921E0920720F028B1206128B92C
S113015003C028B1207128B98C3221E0920720F025
S113016028B1286028B903C028B1287028B9883C70
S1130170910520F028B1246028B903C028B1247067
S113018028B98436910520F088B1826088B98FCF70
S10F019088B1827088B98BCFF894FFCF3F
S9030000FC
